{
  "abi": [
    {
      "type": "constructor",
      "inputs": [
        {
          "name": "owner",
          "type": "address",
          "internalType": "address"
        },
        {
          "name": "cosigner_",
          "type": "address",
          "internalType": "address"
        }
      ],
      "stateMutability": "nonpayable"
    },
    {
      "type": "function",
      "name": "approvePermission",
      "inputs": [
        {
          "name": "permission",
          "type": "tuple",
          "internalType": "struct PermissionManager.Permission",
          "components": [
            {
              "name": "account",
              "type": "address",
              "internalType": "address"
            },
            {
              "name": "chainId",
              "type": "uint256",
              "internalType": "uint256"
            },
            {
              "name": "expiry",
              "type": "uint40",
              "internalType": "uint40"
            },
            {
              "name": "signer",
              "type": "bytes",
              "internalType": "bytes"
            },
            {
              "name": "permissionContract",
              "type": "address",
              "internalType": "address"
            },
            {
              "name": "permissionFields",
              "type": "bytes",
              "internalType": "bytes"
            },
            {
              "name": "verifyingContract",
              "type": "address",
              "internalType": "address"
            },
            {
              "name": "approval",
              "type": "bytes",
              "internalType": "bytes"
            }
          ]
        }
      ],
      "outputs": [],
      "stateMutability": "nonpayable"
    },
    {
      "type": "function",
      "name": "checkBeforeCalls",
      "inputs": [
        {
          "name": "expiry",
          "type": "uint256",
          "internalType": "uint256"
        },
        {
          "name": "permissionContract",
          "type": "address",
          "internalType": "address"
        },
        {
          "name": "paymaster",
          "type": "address",
          "internalType": "address"
        },
        {
          "name": "userOpCosigner",
          "type": "address",
          "internalType": "address"
        }
      ],
      "outputs": [],
      "stateMutability": "view"
    },
    {
      "type": "function",
      "name": "cosigner",
      "inputs": [],
      "outputs": [
        {
          "name": "",
          "type": "address",
          "internalType": "address"
        }
      ],
      "stateMutability": "view"
    },
    {
      "type": "function",
      "name": "hashPermission",
      "inputs": [
        {
          "name": "permission",
          "type": "tuple",
          "internalType": "struct PermissionManager.Permission",
          "components": [
            {
              "name": "account",
              "type": "address",
              "internalType": "address"
            },
            {
              "name": "chainId",
              "type": "uint256",
              "internalType": "uint256"
            },
            {
              "name": "expiry",
              "type": "uint40",
              "internalType": "uint40"
            },
            {
              "name": "signer",
              "type": "bytes",
              "internalType": "bytes"
            },
            {
              "name": "permissionContract",
              "type": "address",
              "internalType": "address"
            },
            {
              "name": "permissionFields",
              "type": "bytes",
              "internalType": "bytes"
            },
            {
              "name": "verifyingContract",
              "type": "address",
              "internalType": "address"
            },
            {
              "name": "approval",
              "type": "bytes",
              "internalType": "bytes"
            }
          ]
        }
      ],
      "outputs": [
        {
          "name": "",
          "type": "bytes32",
          "internalType": "bytes32"
        }
      ],
      "stateMutability": "view"
    },
    {
      "type": "function",
      "name": "isPaymasterEnabled",
      "inputs": [
        {
          "name": "paymaster",
          "type": "address",
          "internalType": "address"
        }
      ],
      "outputs": [
        {
          "name": "enabled",
          "type": "bool",
          "internalType": "bool"
        }
      ],
      "stateMutability": "view"
    },
    {
      "type": "function",
      "name": "isPermissionApproved",
      "inputs": [
        {
          "name": "permissionHash",
          "type": "bytes32",
          "internalType": "bytes32"
        },
        {
          "name": "account",
          "type": "address",
          "internalType": "address"
        }
      ],
      "outputs": [
        {
          "name": "approved",
          "type": "bool",
          "internalType": "bool"
        }
      ],
      "stateMutability": "view"
    },
    {
      "type": "function",
      "name": "isPermissionContractEnabled",
      "inputs": [
        {
          "name": "permissionContract",
          "type": "address",
          "internalType": "address"
        }
      ],
      "outputs": [
        {
          "name": "enabled",
          "type": "bool",
          "internalType": "bool"
        }
      ],
      "stateMutability": "view"
    },
    {
      "type": "function",
      "name": "isPermissionRevoked",
      "inputs": [
        {
          "name": "permissionHash",
          "type": "bytes32",
          "internalType": "bytes32"
        },
        {
          "name": "account",
          "type": "address",
          "internalType": "address"
        }
      ],
      "outputs": [
        {
          "name": "revoked",
          "type": "bool",
          "internalType": "bool"
        }
      ],
      "stateMutability": "view"
    },
    {
      "type": "function",
      "name": "isValidSignature",
      "inputs": [
        {
          "name": "userOpHash",
          "type": "bytes32",
          "internalType": "bytes32"
        },
        {
          "name": "authData",
          "type": "bytes",
          "internalType": "bytes"
        }
      ],
      "outputs": [
        {
          "name": "result",
          "type": "bytes4",
          "internalType": "bytes4"
        }
      ],
      "stateMutability": "view"
    },
    {
      "type": "function",
      "name": "owner",
      "inputs": [],
      "outputs": [
        {
          "name": "",
          "type": "address",
          "internalType": "address"
        }
      ],
      "stateMutability": "view"
    },
    {
      "type": "function",
      "name": "pause",
      "inputs": [],
      "outputs": [],
      "stateMutability": "nonpayable"
    },
    {
      "type": "function",
      "name": "paused",
      "inputs": [],
      "outputs": [
        {
          "name": "",
          "type": "bool",
          "internalType": "bool"
        }
      ],
      "stateMutability": "view"
    },
    {
      "type": "function",
      "name": "pendingCosigner",
      "inputs": [],
      "outputs": [
        {
          "name": "",
          "type": "address",
          "internalType": "address"
        }
      ],
      "stateMutability": "view"
    },
    {
      "type": "function",
      "name": "renounceOwnership",
      "inputs": [],
      "outputs": [],
      "stateMutability": "nonpayable"
    },
    {
      "type": "function",
      "name": "revokePermission",
      "inputs": [
        {
          "name": "permissionHash",
          "type": "bytes32",
          "internalType": "bytes32"
        }
      ],
      "outputs": [],
      "stateMutability": "nonpayable"
    },
    {
      "type": "function",
      "name": "rotateCosigner",
      "inputs": [],
      "outputs": [],
      "stateMutability": "nonpayable"
    },
    {
      "type": "function",
      "name": "setPaymasterEnabled",
      "inputs": [
        {
          "name": "paymaster",
          "type": "address",
          "internalType": "address"
        },
        {
          "name": "enabled",
          "type": "bool",
          "internalType": "bool"
        }
      ],
      "outputs": [],
      "stateMutability": "nonpayable"
    },
    {
      "type": "function",
      "name": "setPendingCosigner",
      "inputs": [
        {
          "name": "newCosigner",
          "type": "address",
          "internalType": "address"
        }
      ],
      "outputs": [],
      "stateMutability": "nonpayable"
    },
    {
      "type": "function",
      "name": "setPermissionContractEnabled",
      "inputs": [
        {
          "name": "permissionContract",
          "type": "address",
          "internalType": "address"
        },
        {
          "name": "enabled",
          "type": "bool",
          "internalType": "bool"
        }
      ],
      "outputs": [],
      "stateMutability": "nonpayable"
    },
    {
      "type": "function",
      "name": "setShouldAddPaymasterGasToTotalSpend",
      "inputs": [
        {
          "name": "paymaster",
          "type": "address",
          "internalType": "address"
        },
        {
          "name": "addGasSpend",
          "type": "bool",
          "internalType": "bool"
        }
      ],
      "outputs": [],
      "stateMutability": "nonpayable"
    },
    {
      "type": "function",
      "name": "shouldAddPaymasterGasToTotalSpend",
      "inputs": [
        {
          "name": "paymaster",
          "type": "address",
          "internalType": "address"
        }
      ],
      "outputs": [
        {
          "name": "enabled",
          "type": "bool",
          "internalType": "bool"
        }
      ],
      "stateMutability": "view"
    },
    {
      "type": "function",
      "name": "transferOwnership",
      "inputs": [
        {
          "name": "newOwner",
          "type": "address",
          "internalType": "address"
        }
      ],
      "outputs": [],
      "stateMutability": "nonpayable"
    },
    {
      "type": "function",
      "name": "unpause",
      "inputs": [],
      "outputs": [],
      "stateMutability": "nonpayable"
    },
    {
      "type": "event",
      "name": "CosignerRotated",
      "inputs": [
        {
          "name": "oldCosigner",
          "type": "address",
          "indexed": true,
          "internalType": "address"
        },
        {
          "name": "newCosigner",
          "type": "address",
          "indexed": true,
          "internalType": "address"
        }
      ],
      "anonymous": false
    },
    {
      "type": "event",
      "name": "OwnershipTransferred",
      "inputs": [
        {
          "name": "previousOwner",
          "type": "address",
          "indexed": true,
          "internalType": "address"
        },
        {
          "name": "newOwner",
          "type": "address",
          "indexed": true,
          "internalType": "address"
        }
      ],
      "anonymous": false
    },
    {
      "type": "event",
      "name": "Paused",
      "inputs": [
        {
          "name": "account",
          "type": "address",
          "indexed": false,
          "internalType": "address"
        }
      ],
      "anonymous": false
    },
    {
      "type": "event",
      "name": "PaymasterGasSpendUpdated",
      "inputs": [
        {
          "name": "paymaster",
          "type": "address",
          "indexed": true,
          "internalType": "address"
        },
        {
          "name": "addGasSpend",
          "type": "bool",
          "indexed": false,
          "internalType": "bool"
        }
      ],
      "anonymous": false
    },
    {
      "type": "event",
      "name": "PaymasterUpdated",
      "inputs": [
        {
          "name": "paymaster",
          "type": "address",
          "indexed": true,
          "internalType": "address"
        },
        {
          "name": "enabled",
          "type": "bool",
          "indexed": false,
          "internalType": "bool"
        }
      ],
      "anonymous": false
    },
    {
      "type": "event",
      "name": "PendingCosignerSet",
      "inputs": [
        {
          "name": "newCosigner",
          "type": "address",
          "indexed": true,
          "internalType": "address"
        }
      ],
      "anonymous": false
    },
    {
      "type": "event",
      "name": "PermissionApproved",
      "inputs": [
        {
          "name": "account",
          "type": "address",
          "indexed": true,
          "internalType": "address"
        },
        {
          "name": "permissionHash",
          "type": "bytes32",
          "indexed": true,
          "internalType": "bytes32"
        }
      ],
      "anonymous": false
    },
    {
      "type": "event",
      "name": "PermissionContractUpdated",
      "inputs": [
        {
          "name": "permissionContract",
          "type": "address",
          "indexed": true,
          "internalType": "address"
        },
        {
          "name": "enabled",
          "type": "bool",
          "indexed": false,
          "internalType": "bool"
        }
      ],
      "anonymous": false
    },
    {
      "type": "event",
      "name": "PermissionRevoked",
      "inputs": [
        {
          "name": "account",
          "type": "address",
          "indexed": true,
          "internalType": "address"
        },
        {
          "name": "permissionHash",
          "type": "bytes32",
          "indexed": true,
          "internalType": "bytes32"
        }
      ],
      "anonymous": false
    },
    {
      "type": "event",
      "name": "Unpaused",
      "inputs": [
        {
          "name": "account",
          "type": "address",
          "indexed": false,
          "internalType": "address"
        }
      ],
      "anonymous": false
    },
    {
      "type": "error",
      "name": "ApprovedPermission",
      "inputs": []
    },
    {
      "type": "error",
      "name": "DisabledPaymaster",
      "inputs": []
    },
    {
      "type": "error",
      "name": "DisabledPermissionContract",
      "inputs": []
    },
    {
      "type": "error",
      "name": "EnforcedPause",
      "inputs": []
    },
    {
      "type": "error",
      "name": "ExpectedPause",
      "inputs": []
    },
    {
      "type": "error",
      "name": "ExpiredPermission",
      "inputs": []
    },
    {
      "type": "error",
      "name": "InvalidPermissionApproval",
      "inputs": []
    },
    {
      "type": "error",
      "name": "InvalidSignature",
      "inputs": []
    },
    {
      "type": "error",
      "name": "InvalidUserOperationCallData",
      "inputs": []
    },
    {
      "type": "error",
      "name": "InvalidUserOperationHash",
      "inputs": []
    },
    {
      "type": "error",
      "name": "InvalidUserOperationSender",
      "inputs": []
    },
    {
      "type": "error",
      "name": "MissingPendingCosigner",
      "inputs": []
    },
    {
      "type": "error",
      "name": "OwnableInvalidOwner",
      "inputs": [
        {
          "name": "owner",
          "type": "address",
          "internalType": "address"
        }
      ]
    },
    {
      "type": "error",
      "name": "OwnableUnauthorizedAccount",
      "inputs": [
        {
          "name": "account",
          "type": "address",
          "internalType": "address"
        }
      ]
    },
    {
      "type": "error",
      "name": "RevokedPermission",
      "inputs": []
    },
    {
      "type": "error",
      "name": "SelectorNotAllowed",
      "inputs": []
    },
    {
      "type": "error",
      "name": "TargetNotAllowed",
      "inputs": []
    }
  ],
  "bytecode": {
    "object": "0x60806040523480156200001157600080fd5b5060405162001e3e38038062001e3e83398101604081905262000034916200013b565b816001600160a01b0381166200006457604051631e4fbdf760e01b81526000600482015260240160405180910390fd5b6200006f81620000ce565b506000805460ff60a01b19168155600680546001600160a01b0319166001600160a01b0384169081179091556040519091907f40418938627b2d07127b554348ea6426671394063a4ba05d794205abd6e1a5b1908290a3505062000173565b600080546001600160a01b038381166001600160a01b0319831681178455604051919092169283917f8be0079c531659141344cd1fd0a4f28419497f9722a3daafe3b4186f6b6457e09190a35050565b80516001600160a01b03811681146200013657600080fd5b919050565b600080604083850312156200014f57600080fd5b6200015a836200011e565b91506200016a602084016200011e565b90509250929050565b611cbb80620001836000396000f3fe608060405234801561001057600080fd5b506004361061014c5760003560e01c80637592d089116100c3578063cd7cc7e01161007c578063cd7cc7e014610306578063e89005c714610319578063ee0bbfb61461032c578063f15efa871461033f578063f2fde38b14610352578063fe3ba1df1461036557600080fd5b80637592d089146102715780638323eeac146102795780638456cb59146102a75780638da5cb5b146102af5780639f2749a8146102c0578063c3ebbd3d146102e357600080fd5b806345ee38bc1161011557806345ee38bc146101fd5780634eb508991461021057806357704b5f146102235780635c975abb14610244578063681232ad14610256578063715018a61461026957600080fd5b80623b6de1146101515780631626ba7e146101895780632856382b146101b55780633c2351b1146101ca5780633f4ba83a146101f5575b600080fd5b61017461015f366004611271565b60036020526000908152604090205460ff1681565b60405190151581526020015b60405180910390f35b61019c610197366004611295565b610393565b6040516001600160e01b03199091168152602001610180565b6101c86101c3366004611311565b610868565b005b6007546101dd906001600160a01b031681565b6040516001600160a01b039091168152602001610180565b6101c8610aea565b6101c861020b36600461135b565b610afc565b6101c861021e36600461135b565b610b64565b6102366102313660046115c2565b610bc4565b604051908152602001610180565b600054600160a01b900460ff16610174565b6006546101dd906001600160a01b031681565b6101c8610c50565b6101c8610c62565b6101746102873660046115ff565b600160209081526000928352604080842090915290825290205460ff1681565b6101c8610cf9565b6000546001600160a01b03166101dd565b6101746102ce366004611271565b60056020526000908152604090205460ff1681565b6101746102f1366004611271565b60046020526000908152604090205460ff1681565b6101c861031436600461135b565b610d09565b6101c8610327366004611624565b610d69565b6101c861033a366004611271565b610df4565b6101c861034d36600461163d565b610e46565b6101c8610360366004611271565b610f47565b6101746103733660046115ff565b600260209081526000928352604080842090915290825290205460ff1681565b6000808080806103a586880188611690565b935093509350935060006103b882610bc4565b825186519192506001600160a01b039182169116146103ea5760405163f8c4579960e01b815260040160405180910390fd5b886103f486610f8a565b1461041257604051631a48477f60e31b815260040160405180910390fd5b600081815260016020908152604080832085516001600160a01b0316845290915290205460ff161561045757604051635f35881d60e01b815260040160405180910390fd5b8160e00151516000036104ad57600081815260026020908152604080832085516001600160a01b0316845290915290205460ff166104a85760405163d7288f6960e01b815260040160405180910390fd5b61054a565b815160e0830151604051630b135d3f60e11b808252926001600160a01b031691631626ba7e916104e191869160040161187d565b602060405180830381865afa1580156104fe573d6000803e3d6000fd5b505050506040513d601f19601f820116820180604052508101906105229190611896565b6001600160e01b0319161461054a5760405163d7288f6960e01b815260040160405180910390fd5b60608201516040516307bccd8560e11b815273__$a00be1fe9bd03ebe5c435babd1ec4a14ae$__91630f799b0a91610589918d918991906004016118c0565b602060405180830381865af41580156105a6573d6000803e3d6000fd5b505050506040513d601f19601f820116820180604052508101906105ca91906118f5565b6105e757604051638baa579f60e01b815260040160405180910390fd5b60006105f38a8561100b565b6060870151909150631a7e6adf60e11b9061060d90611912565b6001600160e01b0319161461063557604051635eda8c6960e11b815260040160405180910390fd5b6000610644876060015161109c565b8060200190518101906106579190611945565b9050306001600160a01b03168160008151811061067657610676611a98565b6020026020010151600001516001600160a01b0316146106a9576040516348cbf26d60e01b815260040160405180910390fd5b600063f15efa8760e01b856040015186608001518a61012001516106cc90611aae565b60405164ffffffffff90931660248401526001600160a01b03918216604484015260601c60648301528516608482015260a40160408051601f198184030181529190526020810180516001600160e01b03166001600160e01b03199093169290921782528051909120835191925090839060009061074c5761074c611a98565b602002602001015160400151805190602001201461077d576040516322ab06f360e01b815260040160405180910390fd5b815160015b818110156107e55786600001516001600160a01b03168482815181106107aa576107aa611a98565b6020026020010151600001516001600160a01b0316036107dd576040516348cbf26d60e01b815260040160405180910390fd5b600101610782565b5085608001516001600160a01b0316635f699909868860a001518c6040518463ffffffff1660e01b815260040161081e93929190611b9e565b60006040518083038186803b15801561083657600080fd5b505afa15801561084a573d6000803e3d6000fd5b50630b135d3f60e11b9c505050505050505050505050509392505050565b600061087661023183611bc9565b90506108856020830183611271565b6001600160a01b0316336001600160a01b0316148061093b57506108ac6020830183611271565b6001600160a01b0316631626ba7e826108c860e0860186611bd5565b6040518463ffffffff1660e01b81526004016108e693929190611c23565b602060405180830381865afa158015610903573d6000803e3d6000fd5b505050506040513d601f19601f820116820180604052508101906109279190611896565b6001600160e01b031916630b135d3f60e11b145b6109585760405163d7288f6960e01b815260040160405180910390fd5b6003600061096c60a0850160808601611271565b6001600160a01b0316815260208101919091526040016000205460ff166109a657604051633751cc9760e11b815260040160405180910390fd5b6000818152600160209081526040822091906109c490850185611271565b6001600160a01b0316815260208101919091526040016000205460ff16156109ff57604051635f35881d60e01b815260040160405180910390fd5b600081815260026020908152604082209190610a1d90850185611271565b6001600160a01b0316815260208101919091526040016000205460ff1615610a58576040516308287e5b60e21b815260040160405180910390fd5b600081815260026020908152604082206001929091610a7990860186611271565b6001600160a01b03168152602080820192909252604001600020805460ff1916921515929092179091558190610ab190840184611271565b6001600160a01b03167f6f4269ce7bee129f025db679c8d4b467f7778b801eed34aa3468999d03e146da60405160405180910390a35050565b610af26110e2565b610afa61110f565b565b610b046110e2565b6001600160a01b038216600081815260056020908152604091829020805460ff191685151590811790915591519182527fe1ca16eb79aa28df0a318332f4f9431e26bdb3f3894808fe0ff6aebd427dc7d491015b60405180910390a25050565b610b6c6110e2565b6001600160a01b038216600081815260046020908152604091829020805460ff191685151590811790915591519182527f0ba954ed4db054456d0d2e300f12595c8afd19103c7c8a727c50a12d7966f0409101610b58565b8051604080830151606080850151805160209182012060808088015160a0808a015180519086012088516001600160a01b039a8b1696810196909652469886019890985264ffffffffff9096169484019490945282015293169083015260c08201523060e082015260009061010001604051602081830303815290604052805190602001209050919050565b610c586110e2565b610afa6000611164565b610c6a6110e2565b6007546001600160a01b0316610c93576040516384a395c160e01b815260040160405180910390fd5b6007546006546040516001600160a01b0392831692909116907f40418938627b2d07127b554348ea6426671394063a4ba05d794205abd6e1a5b190600090a360078054600680546001600160a01b03199081166001600160a01b03841617909155169055565b610d016110e2565b610afa6111b4565b610d116110e2565b6001600160a01b038216600081815260036020908152604091829020805460ff191685151590811790915591519182527f02d47046c0a61206bd7785c577c8f30c9268c02571b74c06101444988de7a49c9101610b58565b600081815260016020908152604080832033845290915290205460ff1615610da457604051635f35881d60e01b815260040160405180910390fd5b6000818152600160208181526040808420338086529252808420805460ff1916909317909255905183927f789770131846de4d1f28418f0f957cdf4fcabe5eccf70067083e20ecece69a3491a350565b610dfc6110e2565b600780546001600160a01b0319166001600160a01b0383169081179091556040517fbc3090d5db899b899908d134502ca823fd87a2aa81aef22b2521f9cbe229111090600090a250565b610e4e6111f7565b42841015610e6f576040516393a17aa560e01b815260040160405180910390fd5b6001600160a01b03831660009081526003602052604090205460ff16610ea857604051633751cc9760e11b815260040160405180910390fd5b6001600160a01b03821615801590610ed957506001600160a01b03821660009081526004602052604090205460ff16155b15610ef757604051636eaff7a360e01b815260040160405180910390fd5b6006546001600160a01b03828116911614801590610f2357506007546001600160a01b03828116911614155b15610f4157604051638baa579f60e01b815260040160405180910390fd5b50505050565b610f4f6110e2565b6001600160a01b038116610f7e57604051631e4fbdf760e01b8152600060048201526024015b60405180910390fd5b610f8781611164565b50565b60405163a619353160e01b8152600090735ff137d4b0fdcd49dca30c7cf57e578a026d27899063a619353190610fc4908590600401611c59565b602060405180830381865afa158015610fe1573d6000803e3d6000fd5b505050506040513d601f19601f820116820180604052508101906110059190611c6c565b92915050565b604051600190836000526020830151604052604083510361104757604083015160ff81901c601b016020526001600160ff1b031660605261106d565b604183510361106857606083015160001a602052604083015160605261106d565b600091505b6020600160806000855afa5191503d61108e57638baa579f6000526004601cfd5b600060605260405292915050565b606060048251036040519150808252602081018201604052602483016020830182820192505b828210156110da5781518152602091820191016110c2565b505050919050565b6000546001600160a01b03163314610afa5760405163118cdaa760e01b8152336004820152602401610f75565b611117611222565b6000805460ff60a01b191690557f5db9ee0a495bf2e6ff9c91a7834c1ba4fdd244a5e8aa4e537bd38aeae4b073aa335b6040516001600160a01b03909116815260200160405180910390a1565b600080546001600160a01b038381166001600160a01b0319831681178455604051919092169283917f8be0079c531659141344cd1fd0a4f28419497f9722a3daafe3b4186f6b6457e09190a35050565b6111bc6111f7565b6000805460ff60a01b1916600160a01b1790557f62e78cea01bee320cd4e420270b5ea74000d11b0c9f74754ebdbfc544b05a2586111473390565b600054600160a01b900460ff1615610afa5760405163d93c066560e01b815260040160405180910390fd5b600054600160a01b900460ff16610afa57604051638dfc202b60e01b815260040160405180910390fd5b6001600160a01b0381168114610f8757600080fd5b803561126c8161124c565b919050565b60006020828403121561128357600080fd5b813561128e8161124c565b9392505050565b6000806000604084860312156112aa57600080fd5b83359250602084013567ffffffffffffffff808211156112c957600080fd5b818601915086601f8301126112dd57600080fd5b8135818111156112ec57600080fd5b8760208285010111156112fe57600080fd5b6020830194508093505050509250925092565b60006020828403121561132357600080fd5b813567ffffffffffffffff81111561133a57600080fd5b8201610100818503121561128e57600080fd5b8015158114610f8757600080fd5b6000806040838503121561136e57600080fd5b82356113798161124c565b915060208301356113898161134d565b809150509250929050565b634e487b7160e01b600052604160045260246000fd5b604051610100810167ffffffffffffffff811182821017156113ce576113ce611394565b60405290565b604051610160810167ffffffffffffffff811182821017156113ce576113ce611394565b6040516060810167ffffffffffffffff811182821017156113ce576113ce611394565b604051601f8201601f1916810167ffffffffffffffff8111828210171561144457611444611394565b604052919050565b803564ffffffffff8116811461126c57600080fd5b600067ffffffffffffffff82111561147b5761147b611394565b50601f01601f191660200190565b600082601f83011261149a57600080fd5b81356114ad6114a882611461565b61141b565b8181528460208386010111156114c257600080fd5b816020850160208301376000918101602001919091529392505050565b600061010082840312156114f257600080fd5b6114fa6113aa565b905061150582611261565b81526020820135602082015261151d6040830161144c565b6040820152606082013567ffffffffffffffff8082111561153d57600080fd5b61154985838601611489565b606084015261155a60808501611261565b608084015260a084013591508082111561157357600080fd5b61157f85838601611489565b60a084015261159060c08501611261565b60c084015260e08401359150808211156115a957600080fd5b506115b684828501611489565b60e08301525092915050565b6000602082840312156115d457600080fd5b813567ffffffffffffffff8111156115eb57600080fd5b6115f7848285016114df565b949350505050565b6000806040838503121561161257600080fd5b8235915060208301356113898161124c565b60006020828403121561163657600080fd5b5035919050565b6000806000806080858703121561165357600080fd5b8435935060208501356116658161124c565b925060408501356116758161124c565b915060608501356116858161124c565b939692955090935050565b600080600080608085870312156116a657600080fd5b843567ffffffffffffffff808211156116be57600080fd5b9086019061016082890312156116d357600080fd5b6116db6113d4565b6116e483611261565b81526020830135602082015260408301358281111561170257600080fd5b61170e8a828601611489565b60408301525060608301358281111561172657600080fd5b6117328a828601611489565b6060830152506080830135608082015260a083013560a082015260c083013560c082015260e083013560e0820152610100808401358183015250610120808401358381111561178057600080fd5b61178c8b828701611489565b82840152505061014080840135838111156117a657600080fd5b6117b28b828701611489565b8284015250508096505060208701359150808211156117d057600080fd5b6117dc88838901611489565b945060408701359150808211156117f257600080fd5b6117fe88838901611489565b9350606087013591508082111561181457600080fd5b50611821878288016114df565b91505092959194509250565b60005b83811015611848578181015183820152602001611830565b50506000910152565b6000815180845261186981602086016020860161182d565b601f01601f19169290920160200192915050565b8281526040602082015260006115f76040830184611851565b6000602082840312156118a857600080fd5b81516001600160e01b03198116811461128e57600080fd5b8381526060602082015260006118d96060830185611851565b82810360408401526118eb8185611851565b9695505050505050565b60006020828403121561190757600080fd5b815161128e8161134d565b805160208201516001600160e01b031980821692919060048310156110da5760049290920360031b82901b161692915050565b6000602080838503121561195857600080fd5b825167ffffffffffffffff8082111561197057600080fd5b818501915085601f83011261198457600080fd5b81518181111561199657611996611394565b8060051b6119a585820161141b565b91825283810185019185810190898411156119bf57600080fd5b86860192505b83831015611a8b578251858111156119dd5760008081fd5b86016060818c03601f19018113156119f55760008081fd5b6119fd6113f8565b89830151611a0a8161124c565b81526040838101518b830152918301519188831115611a295760008081fd5b82840193508d603f850112611a4057600092508283fd5b8a8401519250611a526114a884611461565b8381528e82858701011115611a675760008081fd5b611a76848d830184880161182d565b908201528452505091860191908601906119c5565b9998505050505050505050565b634e487b7160e01b600052603260045260246000fd5b805160208201516bffffffffffffffffffffffff1980821692919060148310156110da5760149290920360031b82901b161692915050565b80516001600160a01b031682526000610160602083015160208501526040830151816040860152611b1982860182611851565b91505060608301518482036060860152611b338282611851565b9150506080830151608085015260a083015160a085015260c083015160c085015260e083015160e08501526101008084015181860152506101208084015185830382870152611b828382611851565b9250505061014080840151858303828701526118eb8382611851565b838152606060208201526000611bb76060830185611851565b82810360408401526118eb8185611ae6565b600061100536836114df565b6000808335601e19843603018112611bec57600080fd5b83018035915067ffffffffffffffff821115611c0757600080fd5b602001915036819003821315611c1c57600080fd5b9250929050565b83815260406020820152816040820152818360608301376000818301606090810191909152601f909201601f1916010192915050565b60208152600061128e6020830184611ae6565b600060208284031215611c7e57600080fd5b505191905056fea264697066735822122084ba588cbbf20e8d0c24679d8829b46843ee152b6500d7b9bb7be3f60535d48b64736f6c63430008170033",
    "linkReferences": {
      "src/utils/SignatureChecker.sol": {
        "SignatureChecker": [
          {
            "start": 1761,
            "length": 20
          }
        ]
      }
    }
  },
  "methodIdentifiers": {
    "approvePermission((address,uint256,uint40,bytes,address,bytes,address,bytes))": "2856382b",
    "checkBeforeCalls(uint256,address,address,address)": "f15efa87",
    "cosigner()": "681232ad",
    "hashPermission((address,uint256,uint40,bytes,address,bytes,address,bytes))": "57704b5f",
    "isPaymasterEnabled(address)": "c3ebbd3d",
    "isPermissionApproved(bytes32,address)": "fe3ba1df",
    "isPermissionContractEnabled(address)": "003b6de1",
    "isPermissionRevoked(bytes32,address)": "8323eeac",
    "isValidSignature(bytes32,bytes)": "1626ba7e",
    "owner()": "8da5cb5b",
    "pause()": "8456cb59",
    "paused()": "5c975abb",
    "pendingCosigner()": "3c2351b1",
    "renounceOwnership()": "715018a6",
    "revokePermission(bytes32)": "e89005c7",
    "rotateCosigner()": "7592d089",
    "setPaymasterEnabled(address,bool)": "4eb50899",
    "setPendingCosigner(address)": "ee0bbfb6",
    "setPermissionContractEnabled(address,bool)": "cd7cc7e0",
    "setShouldAddPaymasterGasToTotalSpend(address,bool)": "45ee38bc",
    "shouldAddPaymasterGasToTotalSpend(address)": "9f2749a8",
    "transferOwnership(address)": "f2fde38b",
    "unpause()": "3f4ba83a"
  },
  "id": 47
}